:020000041000EA
:1000000000B5324B212058609868022188439860DF
:10001000D860186158612E4B002199600221596106
:100020000121F02299502B49196001219960352056
:1000300000F044F80222904214D00621196600F024
:1000400034F8196E01211966002018661A6600F04E
:100050002CF8196E196E196E052000F02FF8012189
:100060000842F9D1002199601B49196000215960AB
:100070001A491B48016001219960EB211966A021F2
:10008000196600F012F800219960164914480160C1
:100090000121996001BC002800D000471248134993
:1000A000086003C880F30888084703B5996A0420EC
:1000B0000142FBD001200142F8D103BD02B5186610
:1000C0001866FFF7F2FF186E186E02BD00000240BE
:1000D000000000180000070000035F00212200005C
:1000E000F4000018222000A00001001008ED00E03C
:1000F00000000000000000000000000074B24E7A12
:1001000000200420F7010010CB010010CD010010E9
:10011000C9010010C9010010C9010010C901001077
:10012000C9010010C9010010C9010010CF01001061
:10013000C9010010C9010010D1010010D301001045
:10014000C1010010C1010010C1010010C101001067
:10015000C1010010C1010010C1010010C101001057
:10016000C1010010C1010010C1010010C101001047
:10017000C1010010C1010010C1010010C101001037
:10018000C1010010C1010010C1010010C101001027
:10019000C1010010C1010010C1010010C101001017
:1001A000C1010010C1010010C1010010C101001007
:1001B000C1010010C1010010C1010010C1010010F7
:1001C000EFF30580103800BE00BE00BE00BE00BECA
:1001D00000BE00BEF2EB8871181C00103C1C001021
:1001E0003802001090A31AE700201E49086006C8D4
:1001F00081F3088810471C480068002801D00020BF
:10020000F3E70DA40ECC002902D000F012F8F9E7B4
:100210001649174A002000E001C19142FCD115495E
:100220008847154988471549884700BEFDE701C939
:1002300001C29A42FBD370473C1C0010C000002052
:1002400018020020941D001000000420000004206B
:10025000941D001000100420001004200000000075
:100260007047000008ED00E0000000D018020020F8
:10027000EC05002045180010CF0200103F180010B8
:1002800070B504000125D026A540360600F082F99D
:10029000B5612000002100F06DF90021200000F080
:1002A00059F9756270BD70B50125040000F072F94E
:1002B0002A00D023A2401B069A62002220001100CF
:1002C00000F028F92900200000F036F970BD30B5A3
:1002D000D0248FB00320FFF7D3FF0420FFF7D0FF17
:1002E00018222406236902201340E361FFF7DBFF95
:1002F0000620FFF7D8FF0720FFF7D5FF00F048FDE5
:10030000002940D0FA220023920000F0DBFF62684F
:100310000100520706A8D20F00F03FF80021642028
:1003200000F05CFE00F034FD002931D0FA220023F9
:10033000920000F0C7FFD02401902406636801A951
:100340005B07DB0F0B71636803AD5B06DB0F4B7163
:10035000636802001B06DB0F8B712800029B06A955
:1003600000F029F82B786A78DB0012011343182279
:1003700021694B401340E36100F0F4FDFA20800056
:1003800000F026FDCEE7FA21890000F05DFFBEE710
:10039000FA21890000F058FFCDE700280AD0012398
:1003A00003700023416002724372C1600361838263
:1003B000816103777047F0B585B002AF06000C1E6F
:1003C00002927B6005D10C2201F00AFA300005B0E0
:1003D000F0BD3B79029D01930B78002B04D12900DD
:1003E0002000019AFFF7D9FF6368EB1A0AD5237F33
:1003F000002B01D104332377A38A002B02D00023E2
:10040000A561A382A3696560EB1A182B21D901238A
:10041000217D7A794B409A420AD0237F002B01D16B
:1004200002332377A38A002B02D00023A561A38285
:100430000123617DBA794B409A420AD0237F002B79
:1004400001D103332377A38A002B02D00023A561B7
:10045000A382237A019A934213D0637A002B39D076
:10046000E368EB1A132B35D8237F002B01D101331E
:100470002377A38A002B02D00023A561A382019BCE
:100480002372627A002A05D09621E3684900EB1AAC
:100490008B4201D3002222610023217F20699942EF
:1004A00005D19A4203D0023383429B415B42277DB0
:1004B0009F4202D1677D9F4202D023756375A5617B
:1004C000337073700B00B2705A1E93413171F37028
:1004D000B0607BE7012363722369E5600133236128
:1004E000CDE70000084B8200D31810B51C684023EC
:1004F0006340C0242340054CC00012191360044B14
:10050000C018416010BDC04604C0014004D0014085
:1005100000400140064B8000C3181B68C9009200D0
:100520000A435A400C231A40024BC018026070471D
:1005300004C0014004D0014002238000002903D000
:10054000024A801803607047014AFAE704E001405C
:1005500004F00140054B8000C3181B68594001237B
:100560001940034BC01801607047C04604C00140E9
:1005700004D00140054B8000C3181B680901594095
:1005800030231940024BC0180160704704C001407D
:1005900004D001400123D022834010B5120693629B
:1005A00005219361FFF79EFF10BD00000FB407B552
:1005B000084801F017FA049B002B07D005A9180082
:1005C000019101F01FF9044801F00CFA012001F03B
:1005D00033F9C046DC1A0010EB1A0010EFF310805C
:1005E00072B6034A1368002BFCD0BFF35F8F7047CD
:1005F0002C0100D0BFF35F8F0022024B1A6080F302
:10060000108870472C0100D00722CB08C35C012062
:10061000114088401840431E9841C0B27047F8B559
:1006200005000C001700FFF7D9FF21000600280085
:10063000FFF7EAFF002803D021003800FFF7B6FFDC
:100640000723E2081C40063BA340A95C30000B4393
:10065000AB54FFF7CFFFF8BD044A1078431CDBB260
:10066000172B00D9102313707047C046C801002013
:100670000021044B044ABFF35F8F02C39342FAD1B7
:100680007047C046000100D0800100D0074B1030F9
:100690009B688000C150BFF35F8FBFF35F8F002165
:1006A000034B196082F310887047C04600ED00E0EC
:1006B000240100D0054B064A1360064A13605360BC
:1006C0009360D36013615361936170478080808031
:1006D00000E400E004E400E01F2318401E3B8340D8
:1006E000002905D0C021044A4900535013607047C7
:1006F000024AD367FBE7C04600E100E004E100E006
:10070000024B10309B688000C058704700ED00E03D
:1007100070B504000D00EFF3108672B60A4A136834
:10072000002BFCD0BFF35F8F2000FFF7E9FF074BE2
:10073000984201D0A84205D1320029002000FFF7DD
:10074000A5FF70BD00F096FC240100D0C10100108F
:10075000024BC918890001607047C0464000003450
:1007600010B50400FFF778FF01002000FFF7F0FF4D
:10077000FF232371BFF35F8F10BD10B50400FFF797
:100780006BFF01002000FFF7E3FFFF23A380BFF30F
:100790005F8F10BD10B50848084B984200D310BDBC
:1007A000040003680834002B03D0FFF7E6FF2000A5
:1007B000F2E7FFF7D5FFFAE7100200201802002049
:1007C0000A4B1868EFF3108272B601680029FCD05A
:1007D000BFF35F8F1B68BFF35F8F0021196082F347
:1007E000108840BF002000217047C046E40500206B
:1007F000F8B5C160040016001F000D00FFF72CFFC4
:10080000D022267012061268144B62700122C018A2
:100810005242BBB263819B18638000238000206139
:100820002281A280BB4212D101270D4BB200D450CD
:100830003C00B44030002C620A49FFF769FF3900E0
:100840003000FFF749FF084BED182C60F8BD182069
:10085000584361695A1E42520133E3E740000034B5
:10086000D0030020C50800103820000010B5094C46
:100870002369002B09D10321074800F053FA102304
:10088000032220000449FFF7B3FF0A210348FFF7C2
:100890005FFF10BDD801002000400540E4050020A6
:1008A00010B5074C0300626A0020914206D8A46A82
:1008B00001309C4202D2881A431E984110BDC046A6
:1008C00000400540F0B589B0EFF3058203231A40DC
:1008D000954B05929200D4580123059A93400693B4
:1008E000069A924B1A60924B069A5A630822A35EAC
:1008F0000393002B54DB1823039A656953438C48F8
:10090000ED18AE68EF6800F017FA8F4248DC01D1AD
:10091000864245D8002F00DA6EE06A692B6904929E
:10092000844A934256D1049B04981B699847002837
:1009300000D161E0049B1A685B6800920193009B00
:10094000019A134358D0002A4EDA009A019BB61A36
:100950009F410022AB5EAE60EF60002B20DB62693E
:10096000944618225A436244D168B94218DC02D135
:100970009268B24214D821002381083118225A43C8
:100980006244D068B84208DC02D19068B04204D812
:10099000110000228B5E002BF0DA2B80039B0B8072
:1009A000A3881BB2002B3EDAA379002B0AD00023C8
:1009B000A37120000830070018250822A35E5A1CE6
:1009C00000D070E00823E15E002900DB85E040BF35
:1009D00009B0F0BD0821605E6A88000404991043E4
:1009E000984700900191AAE7514800F0A5F9009EB0
:1009F000019F36184F41ACE72B8821692381EFF323
:100A0000108372B60A68002AFCD0BFF35F8F628839
:100A10002A80039A62802269BFF35F8F00211160F0
:100A200083F31088BCE72169EFF3108372B60A687C
:100A3000002AFCD0BFF35F8F0121A2884942A18028
:100A400012B22169BFF35F8F0020086083F3108822
:100A5000230008330793002A00DAA5E71821514341
:100A600063690798591803938B68CF680493082328
:100A7000E55E002D0EDB0026835F18267343039E80
:100A8000F318DE68BE4205DC09D19E68B446049EB8
:100A9000B44504D902800023CA5E0D80DBE718004C
:100AA0000023C55EE5E72900594366697218765E42
:100AB000518809B200290EDA01204042C117906026
:100AC000D1600820215E994203D03E8021891180A7
:100AD0002381330073E71700FBE718224A43636959
:100AE0009B189D68DE686B1C01D1731C10D0059BA0
:100AF0000F4F9B00DB19B96A1A69681A521A9042A3
:100B000005D301220598396A8240114200D11D6146
:100B1000074800F011F98E4200DD58E700D0E2E608
:100B2000854200D8DFE652E7D00300203C70054044
:100B300000400540C5080010F0B501000469EFF35E
:100B4000108672B620680028FCD0BFF35F8F0220A9
:100B50000D5E182068434C692418002D01DB2088A5
:100B600048800869BFF35F8F0027076086F310880D
:100B7000BD422CDBE36063880598013320615B0490
:100B800006985B0CA26060611A1CBB4200D1012276
:100B900093B22804628018430E69EFF3108372B693
:100BA0003268002AFCD0BFF35F8F8A8822808D8054
:100BB0000A69BFF35F8F0024146083F31088012259
:100BC0000B789A40CB6803495B181A60F0BD01208E
:100BD0004042FBE73C200000F7B51F000AAB1C7841
:100BE00005001600002C09D0099B32000193089BD8
:100BF000280000933B00FFF79FFFFEBD00F0C8F800
:100C000032003B00121A8B41002BEDDA2000F4E792
:100C100070B5030040890A14904201DC002070BDC9
:100C2000182050435A691C691218EFF3108572B6E8
:100C300020680028FCD0BFF35F8F568889B200205F
:100C4000B4B28E4205D1802109020C435480013098
:100C500098711A69BFF35F8F0021116085F31088C6
:100C60008842DBD001221978DB688A4001495B1891
:100C70001A60D4E73C200000F0B506000F0089B0F0
:100C8000EFF30583002B05D030003900FFF708FE95
:100C900009B0F0BD204D2B68834204D16B688B42B4
:100CA00001D120BFF0E71D4B0693DB680793069B3D
:100CB00007981C7800F040F80434079BA400E4581F
:100CC000002304909C460591241A3900049A059B40
:100CD0003000801A994162468A4202DCE1D18442A6
:100CE000DFD96346029301930D4B320000930698BF
:100CF0003B00FFF771FF041EC6DD300039002E6097
:100D00006F60FFF7CDFD002800D120BF21000698BD
:100D1000FFF77EFFB8E7C046D0010020D8010020D1
:100D2000C107001010B5024A0248FFF778FC10BD59
:100D3000EC1A0010E80500200300416A0A00986AD6
:100D4000596A8A42FAD17047416A9942FCD3994262
:100D500002D1816A914200D37047416AF7E7F7B543
:100D600014001D000190FFF7E7FF220006000F00AE
:100D70002B0092197B41994202D804D1904202D9AA
:100D800001225242D3170198FFF7DEFFF7BD0000A2
:100D900010B50248FFF7D0FF10BDC0460040054027
:100DA00010B502000B000248FFF7D9FF10BDC04686
:100DB00000400540030010B5081E05DB996A9A6AD9
:100DC000521A8242FBD310BD0021FFF7E9FFFAE778
:100DD00010B501000148FFF7EDFF10BD00400540D0
:100DE000F7B50C2444430193254B0092E418636843
:100DF000089A05000E00934200D26260C0232F1FA4
:100E00009B01FFB2E318012F29D8012E27D103221D
:100E10001A60A3683342FCD0009B22685B015340F8
:100E2000E022134080225201A2181360012F09D83A
:100E30000321236873400B4013600123B340A26871
:100E40001342FCD0802380229B01E31812011A6018
:100E5000089B019A63600B4BAD00EA50F7BD8022FE
:100E600012011A60074BAA00D1580029D4D0586942
:100E700000F0EAF9431C032058430338FDD2CBE7C6
:100E80000080004098030020F7B505000E00180010
:100E90000899170000F0D8F9089A030014023100ED
:100EA0003A0028000094FFF79BFFF7BD13B580249C
:100EB00064000094FFF794FF13BD0000014B800015
:100EC000C058704798030020F8B504001F48170069
:100ED0001E000D0000F0B8F90100380000F0B4F970
:100EE000069A3304120313432268002A0FDA3F21C3
:100EF00022680A40AA420AD1A2681205120D824253
:100F000005D1EE21E268C9020A409A421CD0104A7B
:100F1000104EA1184A42514101220C318A400E491B
:100F20000A600E490A60170031688F43391EFAD1F2
:100F30000B4A2131A2182560A060116021680029A8
:100F4000FCDAE36008231360F8BDC046001BB7005D
:100F50000040FDBF08C0004000E0004000F000403D
:100F600004300000024B1A68024B5A607047C046BA
:100F7000CC0300200080054003008020114AC005FA
:100F800010B5114C106011480460E020104CC004F2
:100F9000002906D02060002B05D180231B0623608A
:100FA00010BD1060F7E7FA20C00058438023094ABB
:100FB0005B04984200D308481060FFF7D3FF8023FA
:100FC000DB05ECE700B00540FCFF01000820014014
:100FD00000A00540CC030020FFFFFF0010B5034B2D
:100FE000034ADA61FFF7C8FF10BDC0460080054024
:100FF0002131B76A8023024A9B000B43D3627047BA
:1010000000800540142310B50100188804331B88A4
:10101000984710BD162310B50100188802331B88AD
:10102000984710BDF8B50E00040000270125B7420F
:1010300001D12800F8BD2068FFF7E4FF01C4431E7A
:10104000984101370540F2E7AA22064B12011A60C7
:101050008D225200DA600449044A11605A68002A5D
:10106000FCDA70470040024000B0FA000060024025
:101070007047000010B50148FFF798FA0E1B0010EA
:1010800010B5044C044B9C4200D310BD08CC9847CB
:10109000F8E7C046A01A0010DC1A0010054B064AFB
:1010A00006491A60064B074A136018000A68904305
:1010B000FBD1704700E00040BFCDFBFE08C0004000
:1010C000FE7F3C0000F00040044BDB6C002B03D1A2
:1010D0008022034BD2021A607047C04600001150B4
:1010E0004C201150044A054B1A60054A1368DB0175
:1010F0008033FBD17047C046FFFFFF0100F0004086
:1011000008C000404022034B9A675A671A67DA66A4
:101110007047C04600F0014010B5FFF7A9FA10BDB6
:1011200070B50B490B4C0C4D641AA4082200302CEE
:1011300000D930222800920000F058FB074B2F2CDA
:1011400002D9074B9D6070BDA200AB500134F6E799
:1011500000010010C001001000000020C1010010BB
:1011600000ED00E0002373B5284DAB67FFF76CFF7F
:101170000122274B1A606B6C012BFCD10322254BFB
:101180001A60AC6B012CFCD10226052521000096CB
:101190000623214A2148FFF797FE2B0021000095E6
:1011A0001F4A2048FFF790FE3100002204201E4B0A
:1011B000FFF77CFE2800210000221C4BFFF776FE83
:1011C0000022072011001A4BFFF770FE00220820B2
:1011D0001100174BFFF76AFE80230022DB0011008D
:1011E00000930920124BFFF74FFE00220F4B110016
:1011F0000620FFF75BFE0420FFF760FE0D4900F0BC
:1012000023F801000020FFF7F5FE73BD00800040C9
:101210003CB0004030B00040002F685900800240D0
:10122000008C864700C00240001BB700405973077E
:10123000006CDC0240420F0001480421014B1847BA
:10124000F001002025100010114A936F9B0813D263
:1012500010665166002905D0FFE7FFE7FFE7516FF1
:10126000106F704704B5002801D00020C04300F083
:1012700007FC002104BDC046F0B5146E556E576FD3
:10128000166FFFF7E5FF1466556657671667F0BDE2
:10129000000000D094464A4A926F9208624601D2FA
:1012A00028E0C046F0B5464E346E756E776F366FE7
:1012B00000F020F89446424A146655665767166750
:1012C0006246F0BD94463E4A926F9208624601D251
:1012D00054E0C046F0B53A4E346E756E776F366F97
:1012E00000F04CF89446364A146655665767166700
:1012F0006246F0BD002B24DB11D000293EDA00B598
:10130000C943404200D1013100F038F8C94340429E
:1013100000D10131DB43524200D1013300BD002A2C
:10132000EBD1002801D1002905D00020C90FC90741
:1013300001D1C043410800B500F0AAFB0022002300
:1013400000BD00B500290ADBDB43524200D1013366
:1013500000F014F8C943404200D1013100BDC94337
:10136000404200D10131DB43524200D1013300F051
:1013700005F8DB43524200D1013300BD002923D1DF
:10138000002B18D1002A0CD0BC460D4F38667A6667
:1013900000210023FFE7FFE7FFE77A6F386F67461A
:1013A0007047002801D00748010000B500F070FB2D
:1013B0000022002300BD02000B0000200021704726
:1013C000000000D0FFFFFFFF002B00D0BFE0130C98
:1013D00028D1002AE7D080B4114F39667A66FFE73A
:1013E000FFE730B4040C7B6F396F1B0423433B666B
:1013F0007A66FFE7FFE7FFE7C04684B27B6F3D6F89
:101400001B0423433B667A66FFE7FFE7C0460023E1
:101410002C042D0C7A6F386F00196941B0BC7047ED
:10142000000000D0F0B594460025140E01D1120240
:101430000835140F01D112010435940F01D1920027
:101440000235D40F01D152000135D40B0134254FA0
:101450007C66254C3C660E0C93B2FFE7FFE7FFE786
:101460003C6F6643360C7703BE467343DF0B5B0469
:10147000C01AB941130C7343DB18C91ACE0866436E
:10148000360CB64493B273431F0F1B01C01AB94107
:10149000130C73431F0B1B05C01AB941860D8F0235
:1014A0003E436643360C092D24DB520A7243801AF0
:1014B0007703460A6643360C16235B1BDE40DF408B
:1014C000BF1964466643821B70460435063301002B
:1014D000D940A840C01900D30131A24206D200234E
:1014E000F0BD0000000000D0FFFFFFFF121B013025
:1014F000F3D3F1E709277F1BFE406446A2B2724393
:10150000801A00D20139220C7243130C1204821A81
:1015100099410B007046043513370100F940A8408B
:10152000801900D30131002B02D1A2420AD2F0BDB2
:10153000013000D30131121BFAD2013BF8D1A24293
:1015400000D2F0BD013000D30131121BF7E7F0B536
:101550001C0C00D080E00CB400251C0A04D11B0236
:10156000160E3343120208351C0B04D11B01160F53
:101570003343120104359C0B04D19B00960F334377
:1015800092000235DC0B02D192185B4101351C0040
:10159000971864410134464F7C66464C3C660E0CFD
:1015A000FFE7FFE7FFE7C0463C6F6643360C770373
:1015B000BE4697B27743C01B00D20139C01B00D290
:1015C00001399FB27743C91BC91B170C77437E04AF
:1015D000FF0B801BB941CE086643360C0C2D33DB64
:1015E000B644120B1F053A431B0B97B27743C01B3F
:1015F00000D201399FB27743C91B170C77433E04D1
:101600003F0C801BB941860D8F023E43664329275C
:101610007F1BFE400C3D7746AF40BF1930BCA2B2E5
:10162000ABB272437343801A9941220C7243130C7C
:101630001204801A994102000B000137001BA941D6
:10164000F9D2781E0021F0BD0C277F1BFE407746A3
:101650007F0BAF40FF19E0E700245D1C07D0144F5B
:101660007D663966FFE7FFE7FFE7FFE73C6F95B26E
:101670009EB265436643401BB141150C1E0C654389
:10168000664336042F0C3E432D04401BB141994262
:1016900004D202000B0020000021F0BD01D19042D5
:1016A000F7D3801A994101349942F2D3F6E700004A
:1016B000000000D0FFFFFFFF132370B51C78114D11
:1016C000012C0ED1002310499A000133A950202B80
:1016D000FAD10D4BAB640D48FFF794FC0C4B18602E
:1016E00070BD012CF5DD0B48FFF794FC06000A489D
:1016F000FFF790FC80223100280000F077F8022CE0
:10170000E9D1E6E7E00300201D1700104C3300008C
:10171000E0040020534400005346000007B5604633
:1017200001880A0A0230DF2AFAD1C9B2820804D33A
:10173000028840880004104300E00068014A5050CD
:10174000039007BDE0030020132310B510481C7858
:10175000FFF760FC0100012C13D10E4C5422200035
:1017600000F044F815230C4A990001336250202BF5
:10177000FAD12262E2610948FFF744FC084B186085
:1017800010BD012CF7DD8022024800F02FF8F2E7AF
:1017900053460000E4040020A51700104C3300005D
:1017A000E004002007B5604601880A0A0230DF2AFB
:1017B000FAD1C9B2820804D30288408800041043D9
:1017C00000E00068014A5050039007BDE404002087
:1017D00001480421014B1847000200202510001089
:1017E000014B1B681847000000020020014B5B689A
:1017F000184700000002002010B5002801D000F0BA
:10180000E5F810BD30B50A4B85B01C68002C0AD035
:101810000122084D030000912800524203A9A0476D
:10182000012005B030BD00F0DDF82000F9E7C0462A
:10183000C8030020F917001000BEFDE7704710B57F
:10184000FFF7FAFF10B5FFF71BFC044C044B9C425A
:1018500000D310BD08CC9847F8E7C046DC1A00104A
:10186000DC1A0010030010B5080011001B6898472F
:1018700010BD0000F8B50C000021437D05001600E6
:1018800008008B421ED1110020002B689847F8BD3C
:10189000002927D0631E5B5C0D3B5A425341DBB2EB
:1018A000625C4F1C0A2A0CD1002B0AD1814203DD55
:1018B000091A2B68201898470D4802212B68984771
:1018C000380039008E42E3DC86420DDD311A2B6888
:1018D00020189847A419013C23780D3B5A425341E4
:1018E0002B75D4E72B7DDBE7002ED0DDF2E7C04679
:1018F000131C001010B5FFF74BFA0023054A12180D
:101900004B41002B02DA0122034B5242034800F004
:10191000AFF810BD40420F00FFFFFF7F1002002014
:1019200010B5024800F09CF810BDC046100200201F
:10193000F0B585B006000C001D000092FFF7DAFF3D
:101940000190631C03D1300000F05CF80400144FD8
:10195000002D00D0134F144B1D68002D07D1019BA3
:10196000002B01D0FFF7DCFF200005B0F0BD2B6895
:10197000002B13D00D4B1B68002B01D0AB420DD1B7
:10198000220031002800B847009B002B06D00A2215
:1019900002ABDA712800093AD91DB8472D69DCE796
:1019A0006518001075180010C0030020C403002043
:1019B000054B10B51C68002C00D110BD6368002BCE
:1019C00000D098472469F6E7C003002013B56B46A2
:1019D0000400D81D0123002219000470FFF7A8FF9E
:1019E000200016BD70B5050000F00CF801230400BE
:1019F00001001A002800FFF79BFFFFF7D9FF200026
:101A000070BD000010B583070AD00300032102E077
:101A100001330B4205D01A78002AF9D1181A10BDEB
:101A2000030019680C4A0D4C8A188A4322420FD1D0
:101A30005968094A04338A188A43224208D15968EE
:101A4000054A04338A188A432242F1D000E0013368
:101A50001A78002AFBD1E1E7FFFEFEFE808080803D
:101A600001B40248844601BC604700BF87010020E2
:101A700001B40248844601BC604700BF5901002000
:101A800001B40248844601BC604700BFB101002098
:101A900001B40248844601BC604700BFB101002088
:101AA0009D100010C910001039120010D11700103D
:101AB000B91600104917001065110010E51000104C
:101AC00005110010191100109507001021110010C8
:0C1AD0006D08001071100010B506001029
:101ADC000A2A2A2A2050414E4943202A2A2A0A003F
:101AEC00486172647761726520616C61726D20254A
:101AFC006420616C726561647920636C61696D65E9
:101B0C0064004861726420617373657274004D697E
:101B1C006E53697A6552656C00626F6F74325F77D1
:101B2C00323571303830005052454C494D494E4198
:101B3C005259206F7264696E6172792064696167B1
:101B4C006E6F73746963207761746368646F672068
:101B5C006E6F207361666574792063726564697455
:101B6C000050302E3200322E332E30007069636FED
:101B7C000050726F6A65637420427574746F6E20C6
:101B8C0048522D5630205761746368646F6700416A
:101B9C00756720203720323032360006005250D381
:101BAC00F075421A1B001006005250E182887F2506
:101BBC001B001006005250197CA0B6331B001006F7
:101BCC000052503ABCA9116D1B001006005250ABCC
:101BDC00B36053721B001006005250BBFF3CB6782A
:101BEC001B001006005250861C03027D1B001006C1
:101BFC000052505422A29D9B1B001005005250DE37
:0C1C0C0065F468941D00100D0A00000033
:101C1800A71B0010B31B0010BF1B0010CB1B00102C
:101C2800D71B0010E31B0010EF1B0010FB1B00105C
:041C3800071C001075
:101C3C00030010B50068EFF3108472B60268002A36
:101C4C00FCD0BFF35F8F04229A56002A0CDAD02204
:101C5C000120120612681A711B68BFF35F8F0022F5
:101C6C001A6084F3108810BD002901D10020F3E71D
:101C7C000A60FBE7F7B50193D023050016001B069D
:101C8C001F682968EFF3108372B60A68002AFCD02B
:101C9C00BFF35F8F297900242A687F2907D92F7118
:101CAC00BFF35F8F146083F310880120FEBDBFF378
:101CBC005F8F146083F310883000019900F034F8C2
:101CCC000028DED02000F1E773B501A9040016004E
:101CDC001D00FFF7ADFF00280CD1D0221206019B8E
:101CEC0012785BB252B2934204D032002B00200027
:101CFC00FFF7C0FF76BD0168EFF3108372B60A6878
:101D0C00002AFCD0BFF35F8FFF2202710268BFF381
:101D1C005F8F0021116083F3108840BF7047000073
:101D2C007047C0460000000001B40248844601BC64
:101D3C00604700BF790C001010000000000000008C
:101D4C00FFFFFFFFFFFFFF7F00000000000000000F
:101D5C00000000000000000000000000180200203D
:101D6C00503300004C330000543300005233000059
:101D7C004D5300004D430000533400004334000029
:081D8C0000000000000000004F
:04000005100001E9FD
:00000001FF
