:020000040800F2
:100000000000022099020008F5020008F50200082D
:10001000F5020008F5020008F502000800000000E3
:10002000000000000000000000000000F5020008D1
:10003000F502000800000000F5020008F5020008C3
:10004000F5020008F5020008F5020008F5020008B4
:10005000F5020008F5020008F5020008F5020008A4
:10006000F5020008F5020008F5020008F502000894
:10007000F5020008F5020008F5020008F502000884
:1002980072B600F031F80E480E490F4A914204D266
:1002A80050F8043B41F8043BF8E70C490C4A00239A
:1002B800914202D241F8043BFAE70A480A49086029
:1002C800BFF34F8FBFF36F8F00F046F9FEE70000D2
:1002D8007408000800000020000000200000002032
:1002E800040000200000000808ED00E072B600F0ED
:1002F8008FF9FEE7D4D4D4D42DE9F04144F2E0409C
:100308004FF6FF72C5F60200C3F6E17240F6040626
:1003180000250168C0F6000641F05F010160016830
:10032800816811408160016921F03001016100BFDD
:100338007019715B807841EA004004F07F410C1825
:10034800204600F063F803350F2DF1D140F6220660
:100358000025C0F6000600BF7019715B807841EA7D
:10036800004004F07F410C18204600F04FF8033598
:10037800182DF1D1002040F6130C0021C5F602001B
:10038800C0F6000C6FF0010E4FF00308022200BF08
:100398003CF8016003310F29F5B20EEAD6164FEA90
:1003A800852300EB852508FA06F7C45845F00C05A7
:1003B80024EA0704C45002FA06F42B6823EA070368
:1003C80043EA04032B60E3D140F63A0C0021C0F65F
:1003D800000C6FF0010303243CF801700331272956
:1003E800FEB203EAD71704FA07F700EB862545F0B3
:1003F8000C054FEA86262A6822EA07022A608259F3
:1004080042EA07028251E7D1BDE8F08110B54FF406
:100418007F3140F2000C01EA8021C5F6020C01EBA5
:100428000C024FF48034C0F307234FF0010E9C40B8
:1004380094610EFA03F3546824EA030353604FF4FB
:10044800FF73946803EAD010032383409C439460AD
:10045800D4680EFA00F09C43D46051F80C209A43FB
:10046800104341F80C0010BD10B544F2E84240F2C8
:10047800184E4FF6FF7CC5F60202C5F6020EC3F60B
:10048800E17C38B1017801290DD1C168CB1E18BFB4
:10049800012309E0106800EA0C001060906820F061
:1004A800300090600DE00023C178D9B3106800EAED
:1004B8000C001060906820F0300090600BB10420B0
:1004C80001E04FF48020CEF800004FF40060CEF831
:1004D80000004FF08060CEF8000041F61800C5F625
:1004E80002004FF0006140F6220C4FF480330160A7
:1004F8004FF600414FF08040CEF800000020C0F6D3
:10050800000CCFF6FF7100BF3CF80020033018281C
:10051800D4B24FEA122203FA02F20EEB842462509C
:10052800F2D110BDC068116801EA0C011160916830
:1005380021F0300191601BB103284FF0040002E064
:1005480003284FF48020CEF80000BED04FF00060A2
:10055800BDE7D4D4D4D4D4D48EB04EF2100740F230
:10056800104ACEF20007C5F6020AFFF7C5FE04AC32
:10057800002139604FF6FF1078600520B9603860B7
:10058800204600F055F840F2000964254FF4807BBE
:10059800C2F20009E8460026304600BF00BF00BF8F
:1005A8003968C90301D400BFFAE70130A842F7D17E
:1005B80040F6000040F6EA71C0F60000C9F69B015B
:1005C800643600220068334608444146B0FA80F099
:1005D80040098DF80000DAF8000000F001008DF8FD
:1005E8000100DAF80000ADF803B0C0F340008DF860
:1005F800020000200290B9F80000ADF80C00204677
:1006080000F027F82046FFF72FFF6435C4E7D4D45D
:10061800FFF772FE40F218404FF40061C5F6020081
:10062800016000BF00BF00BF30BFFDE7D4D4D4D401
:1006380070B10021002200BF81540132282AFBD169
:100648000021C1600122426141600181A0F80110CE
:100658007047B0B5044630B329B31546E2680020A8
:10066800032A60602081A4F8010028D1CA7820708C
:10067800012A40F084804878002840F0808008797A
:1006880001287CD18868002879D18889002876D10A
:100698000878012873D10020E07001216161C4E964
:1006A8000310A084B0BD002C69D0002020814FF039
:1006B8008071C4E900100320E06006202FE094F860
:1006C80026002278012882F0010020700BD1E06911
:1006D800834208D20020208120800120E07003207E
:1006E800E06005201BE00A78012084F82600E36119
:1006F8007AB10879012804BF88685FEAC01012D06F
:100708000020208120800120E0700320E06002208A
:1007180005E00021218121800321E070E160206152
:1007280009206061B0BD087B38B10020208120809D
:100738000120E0700320E060F1E794F8250001282B
:1007480001D14878E0B194F82400022806D8013095
:1007580084F824000020E0600120E2E74878C0B176
:10076800012084F825000220E060204629461A4628
:1007780000F012F8606110B968682062A061B0BD2D
:100788000020208120800120E0700320E060042008
:10079800C5E70120E060C4E789B10B78012B0ED1D1
:1007A8004B78012B0DD18B78012B0CD1B1F80CC0F3
:1007B800ACF2D17313F5FA6F07D206207047012007
:1007C800704703207047042070478B68D21A62452F
:1007D80001D9052070474A68006A824204D9C8894D
:1007E800FA2803D9082070470720704708690A3893
:1007F80018BF02207047D4D416F064670102300194
:100808000A45010B46010E4B060B7E01002E010125
:100818002F010C49010D4A010F4C000C68030476A6
:10082800030C5106085D000F6E02086204093C03C0
:100838000F56000965000A6603057703067A030860
:100848004D03094E020660020761020A6F020B702F
:0C085800020C7104083B04018ED4D4D4BF
:1008640034FAFF7F0100000092FFFF7F01000000C7
:040000050800029954
:00000001FF
